{
  "_format": "hh-sol-artifact-1",
  "contractName": "BlockChain",
  "sourceName": "contracts/GovernanceToken.sol",
  "abi": [
    {
      "inputs": [],
      "stateMutability": "nonpayable",
      "type": "constructor"
    },
    {
      "anonymous": false,
      "inputs": [
        {
          "indexed": true,
          "internalType": "address",
          "name": "owner",
          "type": "address"
        },
        {
          "indexed": true,
          "internalType": "address",
          "name": "spender",
          "type": "address"
        },
        {
          "indexed": false,
          "internalType": "uint256",
          "name": "value",
          "type": "uint256"
        }
      ],
      "name": "Approval",
      "type": "event"
    },
    {
      "anonymous": false,
      "inputs": [
        {
          "indexed": true,
          "internalType": "address",
          "name": "previousOwner",
          "type": "address"
        },
        {
          "indexed": true,
          "internalType": "address",
          "name": "newOwner",
          "type": "address"
        }
      ],
      "name": "OwnershipTransferred",
      "type": "event"
    },
    {
      "anonymous": false,
      "inputs": [
        {
          "indexed": true,
          "internalType": "address",
          "name": "from",
          "type": "address"
        },
        {
          "indexed": true,
          "internalType": "address",
          "name": "to",
          "type": "address"
        },
        {
          "indexed": false,
          "internalType": "uint256",
          "name": "value",
          "type": "uint256"
        }
      ],
      "name": "Transfer",
      "type": "event"
    },
    {
      "inputs": [
        {
          "internalType": "address",
          "name": "owner",
          "type": "address"
        },
        {
          "internalType": "address",
          "name": "spender",
          "type": "address"
        }
      ],
      "name": "allowance",
      "outputs": [
        {
          "internalType": "uint256",
          "name": "",
          "type": "uint256"
        }
      ],
      "stateMutability": "view",
      "type": "function"
    },
    {
      "inputs": [
        {
          "internalType": "address",
          "name": "spender",
          "type": "address"
        },
        {
          "internalType": "uint256",
          "name": "amount",
          "type": "uint256"
        }
      ],
      "name": "approve",
      "outputs": [
        {
          "internalType": "bool",
          "name": "",
          "type": "bool"
        }
      ],
      "stateMutability": "nonpayable",
      "type": "function"
    },
    {
      "inputs": [
        {
          "internalType": "address",
          "name": "account",
          "type": "address"
        }
      ],
      "name": "balanceOf",
      "outputs": [
        {
          "internalType": "uint256",
          "name": "",
          "type": "uint256"
        }
      ],
      "stateMutability": "view",
      "type": "function"
    },
    {
      "inputs": [],
      "name": "decimals",
      "outputs": [
        {
          "internalType": "uint8",
          "name": "",
          "type": "uint8"
        }
      ],
      "stateMutability": "view",
      "type": "function"
    },
    {
      "inputs": [
        {
          "internalType": "address",
          "name": "spender",
          "type": "address"
        },
        {
          "internalType": "uint256",
          "name": "subtractedValue",
          "type": "uint256"
        }
      ],
      "name": "decreaseAllowance",
      "outputs": [
        {
          "internalType": "bool",
          "name": "",
          "type": "bool"
        }
      ],
      "stateMutability": "nonpayable",
      "type": "function"
    },
    {
      "inputs": [
        {
          "internalType": "address",
          "name": "spender",
          "type": "address"
        },
        {
          "internalType": "uint256",
          "name": "addedValue",
          "type": "uint256"
        }
      ],
      "name": "increaseAllowance",
      "outputs": [
        {
          "internalType": "bool",
          "name": "",
          "type": "bool"
        }
      ],
      "stateMutability": "nonpayable",
      "type": "function"
    },
    {
      "inputs": [
        {
          "internalType": "uint256",
          "name": "amount",
          "type": "uint256"
        }
      ],
      "name": "mint",
      "outputs": [],
      "stateMutability": "nonpayable",
      "type": "function"
    },
    {
      "inputs": [],
      "name": "name",
      "outputs": [
        {
          "internalType": "string",
          "name": "",
          "type": "string"
        }
      ],
      "stateMutability": "view",
      "type": "function"
    },
    {
      "inputs": [],
      "name": "owner",
      "outputs": [
        {
          "internalType": "address",
          "name": "",
          "type": "address"
        }
      ],
      "stateMutability": "view",
      "type": "function"
    },
    {
      "inputs": [],
      "name": "renounceOwnership",
      "outputs": [],
      "stateMutability": "nonpayable",
      "type": "function"
    },
    {
      "inputs": [],
      "name": "symbol",
      "outputs": [
        {
          "internalType": "string",
          "name": "",
          "type": "string"
        }
      ],
      "stateMutability": "view",
      "type": "function"
    },
    {
      "inputs": [],
      "name": "totalSupply",
      "outputs": [
        {
          "internalType": "uint256",
          "name": "",
          "type": "uint256"
        }
      ],
      "stateMutability": "view",
      "type": "function"
    },
    {
      "inputs": [
        {
          "internalType": "address",
          "name": "recipient",
          "type": "address"
        },
        {
          "internalType": "uint256",
          "name": "amount",
          "type": "uint256"
        }
      ],
      "name": "transfer",
      "outputs": [
        {
          "internalType": "bool",
          "name": "",
          "type": "bool"
        }
      ],
      "stateMutability": "nonpayable",
      "type": "function"
    },
    {
      "inputs": [
        {
          "internalType": "address",
          "name": "sender",
          "type": "address"
        },
        {
          "internalType": "address",
          "name": "recipient",
          "type": "address"
        },
        {
          "internalType": "uint256",
          "name": "amount",
          "type": "uint256"
        }
      ],
      "name": "transferFrom",
      "outputs": [
        {
          "internalType": "bool",
          "name": "",
          "type": "bool"
        }
      ],
      "stateMutability": "nonpayable",
      "type": "function"
    },
    {
      "inputs": [
        {
          "internalType": "address",
          "name": "newOwner",
          "type": "address"
        }
      ],
      "name": "transferOwnership",
      "outputs": [],
      "stateMutability": "nonpayable",
      "type": "function"
    }
  ],
  "bytecode": "0x60806040526103e86006553480156200001757600080fd5b506040518060400160405280601581526020017f426c6f636b20436861696e204c616220746f6b656e00000000000000000000008152506040518060400160405280600381526020017f42434c0000000000000000000000000000000000000000000000000000000000815250620000a462000098620000f260201b60201c565b620000fa60201b60201c565b8160049080519060200190620000bc92919062000342565b508060059080519060200190620000d592919062000342565b505050620000ec33600654620001be60201b60201c565b62000590565b600033905090565b60008060009054906101000a900473ffffffffffffffffffffffffffffffffffffffff169050816000806101000a81548173ffffffffffffffffffffffffffffffffffffffff021916908373ffffffffffffffffffffffffffffffffffffffff1602179055508173ffffffffffffffffffffffffffffffffffffffff168173ffffffffffffffffffffffffffffffffffffffff167f8be0079c531659141344cd1fd0a4f28419497f9722a3daafe3b4186f6b6457e060405160405180910390a35050565b600073ffffffffffffffffffffffffffffffffffffffff168273ffffffffffffffffffffffffffffffffffffffff16141562000231576040517f08c379a0000000000000000000000000000000000000000000000000000000008152600401620002289062000445565b60405180910390fd5b62000245600083836200033860201b60201c565b806003600082825462000259919062000495565b9250508190555080600160008473ffffffffffffffffffffffffffffffffffffffff1673ffffffffffffffffffffffffffffffffffffffff1681526020019081526020016000206000828254620002b1919062000495565b925050819055508173ffffffffffffffffffffffffffffffffffffffff16600073ffffffffffffffffffffffffffffffffffffffff167fddf252ad1be2c89b69c2b068fc378daa952ba7f163c4a11628f55a4df523b3ef8360405162000318919062000467565b60405180910390a362000334600083836200033d60201b60201c565b5050565b505050565b505050565b8280546200035090620004fc565b90600052602060002090601f016020900481019282620003745760008555620003c0565b82601f106200038f57805160ff1916838001178555620003c0565b82800160010185558215620003c0579182015b82811115620003bf578251825591602001919060010190620003a2565b5b509050620003cf9190620003d3565b5090565b5b80821115620003ee576000816000905550600101620003d4565b5090565b600062000401601f8362000484565b91507f45524332303a206d696e7420746f20746865207a65726f2061646472657373006000830152602082019050919050565b6200043f81620004f2565b82525050565b600060208201905081810360008301526200046081620003f2565b9050919050565b60006020820190506200047e600083018462000434565b92915050565b600082825260208201905092915050565b6000620004a282620004f2565b9150620004af83620004f2565b9250827fffffffffffffffffffffffffffffffffffffffffffffffffffffffffffffffff03821115620004e757620004e662000532565b5b828201905092915050565b6000819050919050565b600060028204905060018216806200051557607f821691505b602082108114156200052c576200052b62000561565b5b50919050565b7f4e487b7100000000000000000000000000000000000000000000000000000000600052601160045260246000fd5b7f4e487b7100000000000000000000000000000000000000000000000000000000600052602260045260246000fd5b6119e180620005a06000396000f3fe608060405234801561001057600080fd5b50600436106100f55760003560e01c8063715018a611610097578063a457c2d711610066578063a457c2d714610276578063a9059cbb146102a6578063dd62ed3e146102d6578063f2fde38b14610306576100f5565b8063715018a6146102145780638da5cb5b1461021e57806395d89b411461023c578063a0712d681461025a576100f5565b806323b872dd116100d357806323b872dd14610166578063313ce5671461019657806339509351146101b457806370a08231146101e4576100f5565b806306fdde03146100fa578063095ea7b31461011857806318160ddd14610148575b600080fd5b610102610322565b60405161010f919061164a565b60405180910390f35b610132600480360381019061012d919061118a565b6103b4565b60405161013f919061162f565b60405180910390f35b6101506103d2565b60405161015d91906117ac565b60405180910390f35b610180600480360381019061017b919061113b565b6103dc565b60405161018d919061162f565b60405180910390f35b61019e6104d4565b6040516101ab91906117c7565b60405180910390f35b6101ce60048036038101906101c9919061118a565b6104dd565b6040516101db919061162f565b60405180910390f35b6101fe60048036038101906101f991906110d6565b610589565b60405161020b91906117ac565b60405180910390f35b61021c6105d2565b005b61022661065a565b6040516102339190611614565b60405180910390f35b610244610683565b604051610251919061164a565b60405180910390f35b610274600480360381019061026f91906111c6565b610715565b005b610290600480360381019061028b919061118a565b61079e565b60405161029d919061162f565b60405180910390f35b6102c060048036038101906102bb919061118a565b610889565b6040516102cd919061162f565b60405180910390f35b6102f060048036038101906102eb91906110ff565b6108a7565b6040516102fd91906117ac565b60405180910390f35b610320600480360381019061031b91906110d6565b61092e565b005b606060048054610331906118dc565b80601f016020809104026020016040519081016040528092919081815260200182805461035d906118dc565b80156103aa5780601f1061037f576101008083540402835291602001916103aa565b820191906000526020600020905b81548152906001019060200180831161038d57829003601f168201915b5050505050905090565b60006103c86103c1610a26565b8484610a2e565b6001905092915050565b6000600354905090565b60006103e9848484610bf9565b6000600260008673ffffffffffffffffffffffffffffffffffffffff1673ffffffffffffffffffffffffffffffffffffffff1681526020019081526020016000206000610434610a26565b73ffffffffffffffffffffffffffffffffffffffff1673ffffffffffffffffffffffffffffffffffffffff168152602001908152602001600020549050828110156104b4576040517f08c379a00000000000000000000000000000000000000000000000000000000081526004016104ab906116ec565b60405180910390fd5b6104c8856104c0610a26565b858403610a2e565b60019150509392505050565b60006012905090565b600061057f6104ea610a26565b8484600260006104f8610a26565b73ffffffffffffffffffffffffffffffffffffffff1673ffffffffffffffffffffffffffffffffffffffff16815260200190815260200160002060008873ffffffffffffffffffffffffffffffffffffffff1673ffffffffffffffffffffffffffffffffffffffff1681526020019081526020016000205461057a91906117fe565b610a2e565b6001905092915050565b6000600160008373ffffffffffffffffffffffffffffffffffffffff1673ffffffffffffffffffffffffffffffffffffffff168152602001908152602001600020549050919050565b6105da610a26565b73ffffffffffffffffffffffffffffffffffffffff166105f861065a565b73ffffffffffffffffffffffffffffffffffffffff161461064e576040517f08c379a00000000000000000000000000000000000000000000000000000000081526004016106459061170c565b60405180910390fd5b6106586000610e7d565b565b60008060009054906101000a900473ffffffffffffffffffffffffffffffffffffffff16905090565b606060058054610692906118dc565b80601f01602080910402602001604051908101604052809291908181526020018280546106be906118dc565b801561070b5780601f106106e05761010080835404028352916020019161070b565b820191906000526020600020905b8154815290600101906020018083116106ee57829003601f168201915b5050505050905090565b61071d610a26565b73ffffffffffffffffffffffffffffffffffffffff1661073b61065a565b73ffffffffffffffffffffffffffffffffffffffff1614610791576040517f08c379a00000000000000000000000000000000000000000000000000000000081526004016107889061170c565b60405180910390fd5b61079b3382610f41565b50565b600080600260006107ad610a26565b73ffffffffffffffffffffffffffffffffffffffff1673ffffffffffffffffffffffffffffffffffffffff16815260200190815260200160002060008573ffffffffffffffffffffffffffffffffffffffff1673ffffffffffffffffffffffffffffffffffffffff1681526020019081526020016000205490508281101561086a576040517f08c379a00000000000000000000000000000000000000000000000000000000081526004016108619061176c565b60405180910390fd5b61087e610875610a26565b85858403610a2e565b600191505092915050565b600061089d610896610a26565b8484610bf9565b6001905092915050565b6000600260008473ffffffffffffffffffffffffffffffffffffffff1673ffffffffffffffffffffffffffffffffffffffff16815260200190815260200160002060008373ffffffffffffffffffffffffffffffffffffffff1673ffffffffffffffffffffffffffffffffffffffff16815260200190815260200160002054905092915050565b610936610a26565b73ffffffffffffffffffffffffffffffffffffffff1661095461065a565b73ffffffffffffffffffffffffffffffffffffffff16146109aa576040517f08c379a00000000000000000000000000000000000000000000000000000000081526004016109a19061170c565b60405180910390fd5b600073ffffffffffffffffffffffffffffffffffffffff168173ffffffffffffffffffffffffffffffffffffffff161415610a1a576040517f08c379a0000000000000000000000000000000000000000000000000000000008152600401610a119061168c565b60405180910390fd5b610a2381610e7d565b50565b600033905090565b600073ffffffffffffffffffffffffffffffffffffffff168373ffffffffffffffffffffffffffffffffffffffff161415610a9e576040517f08c379a0000000000000000000000000000000000000000000000000000000008152600401610a959061174c565b60405180910390fd5b600073ffffffffffffffffffffffffffffffffffffffff168273ffffffffffffffffffffffffffffffffffffffff161415610b0e576040517f08c379a0000000000000000000000000000000000000000000000000000000008152600401610b05906116ac565b60405180910390fd5b80600260008573ffffffffffffffffffffffffffffffffffffffff1673ffffffffffffffffffffffffffffffffffffffff16815260200190815260200160002060008473ffffffffffffffffffffffffffffffffffffffff1673ffffffffffffffffffffffffffffffffffffffff168152602001908152602001600020819055508173ffffffffffffffffffffffffffffffffffffffff168373ffffffffffffffffffffffffffffffffffffffff167f8c5be1e5ebec7d5bd14f71427d1e84f3dd0314c0f7b2291e5b200ac8c7c3b92583604051610bec91906117ac565b60405180910390a3505050565b600073ffffffffffffffffffffffffffffffffffffffff168373ffffffffffffffffffffffffffffffffffffffff161415610c69576040517f08c379a0000000000000000000000000000000000000000000000000000000008152600401610c609061172c565b60405180910390fd5b600073ffffffffffffffffffffffffffffffffffffffff168273ffffffffffffffffffffffffffffffffffffffff161415610cd9576040517f08c379a0000000000000000000000000000000000000000000000000000000008152600401610cd09061166c565b60405180910390fd5b610ce48383836110a2565b6000600160008573ffffffffffffffffffffffffffffffffffffffff1673ffffffffffffffffffffffffffffffffffffffff16815260200190815260200160002054905081811015610d6b576040517f08c379a0000000000000000000000000000000000000000000000000000000008152600401610d62906116cc565b60405180910390fd5b818103600160008673ffffffffffffffffffffffffffffffffffffffff1673ffffffffffffffffffffffffffffffffffffffff1681526020019081526020016000208190555081600160008573ffffffffffffffffffffffffffffffffffffffff1673ffffffffffffffffffffffffffffffffffffffff1681526020019081526020016000206000828254610e0091906117fe565b925050819055508273ffffffffffffffffffffffffffffffffffffffff168473ffffffffffffffffffffffffffffffffffffffff167fddf252ad1be2c89b69c2b068fc378daa952ba7f163c4a11628f55a4df523b3ef84604051610e6491906117ac565b60405180910390a3610e778484846110a7565b50505050565b60008060009054906101000a900473ffffffffffffffffffffffffffffffffffffffff169050816000806101000a81548173ffffffffffffffffffffffffffffffffffffffff021916908373ffffffffffffffffffffffffffffffffffffffff1602179055508173ffffffffffffffffffffffffffffffffffffffff168173ffffffffffffffffffffffffffffffffffffffff167f8be0079c531659141344cd1fd0a4f28419497f9722a3daafe3b4186f6b6457e060405160405180910390a35050565b600073ffffffffffffffffffffffffffffffffffffffff168273ffffffffffffffffffffffffffffffffffffffff161415610fb1576040517f08c379a0000000000000000000000000000000000000000000000000000000008152600401610fa89061178c565b60405180910390fd5b610fbd600083836110a2565b8060036000828254610fcf91906117fe565b9250508190555080600160008473ffffffffffffffffffffffffffffffffffffffff1673ffffffffffffffffffffffffffffffffffffffff168152602001908152602001600020600082825461102591906117fe565b925050819055508173ffffffffffffffffffffffffffffffffffffffff16600073ffffffffffffffffffffffffffffffffffffffff167fddf252ad1be2c89b69c2b068fc378daa952ba7f163c4a11628f55a4df523b3ef8360405161108a91906117ac565b60405180910390a361109e600083836110a7565b5050565b505050565b505050565b6000813590506110bb8161197d565b92915050565b6000813590506110d081611994565b92915050565b6000602082840312156110e857600080fd5b60006110f6848285016110ac565b91505092915050565b6000806040838503121561111257600080fd5b6000611120858286016110ac565b9250506020611131858286016110ac565b9150509250929050565b60008060006060848603121561115057600080fd5b600061115e868287016110ac565b935050602061116f868287016110ac565b9250506040611180868287016110c1565b9150509250925092565b6000806040838503121561119d57600080fd5b60006111ab858286016110ac565b92505060206111bc858286016110c1565b9150509250929050565b6000602082840312156111d857600080fd5b60006111e6848285016110c1565b91505092915050565b6111f881611854565b82525050565b61120781611866565b82525050565b6000611218826117e2565b61122281856117ed565b93506112328185602086016118a9565b61123b8161196c565b840191505092915050565b60006112536023836117ed565b91507f45524332303a207472616e7366657220746f20746865207a65726f206164647260008301527f65737300000000000000000000000000000000000000000000000000000000006020830152604082019050919050565b60006112b96026836117ed565b91507f4f776e61626c653a206e6577206f776e657220697320746865207a65726f206160008301527f64647265737300000000000000000000000000000000000000000000000000006020830152604082019050919050565b600061131f6022836117ed565b91507f45524332303a20617070726f766520746f20746865207a65726f20616464726560008301527f73730000000000000000000000000000000000000000000000000000000000006020830152604082019050919050565b60006113856026836117ed565b91507f45524332303a207472616e7366657220616d6f756e742065786365656473206260008301527f616c616e636500000000000000000000000000000000000000000000000000006020830152604082019050919050565b60006113eb6028836117ed565b91507f45524332303a207472616e7366657220616d6f756e742065786365656473206160008301527f6c6c6f77616e63650000000000000000000000000000000000000000000000006020830152604082019050919050565b60006114516020836117ed565b91507f4f776e61626c653a2063616c6c6572206973206e6f7420746865206f776e65726000830152602082019050919050565b60006114916025836117ed565b91507f45524332303a207472616e736665722066726f6d20746865207a65726f20616460008301527f64726573730000000000000000000000000000000000000000000000000000006020830152604082019050919050565b60006114f76024836117ed565b91507f45524332303a20617070726f76652066726f6d20746865207a65726f2061646460008301527f72657373000000000000000000000000000000000000000000000000000000006020830152604082019050919050565b600061155d6025836117ed565b91507f45524332303a2064656372656173656420616c6c6f77616e63652062656c6f7760008301527f207a65726f0000000000000000000000000000000000000000000000000000006020830152604082019050919050565b60006115c3601f836117ed565b91507f45524332303a206d696e7420746f20746865207a65726f2061646472657373006000830152602082019050919050565b6115ff81611892565b82525050565b61160e8161189c565b82525050565b600060208201905061162960008301846111ef565b92915050565b600060208201905061164460008301846111fe565b92915050565b60006020820190508181036000830152611664818461120d565b905092915050565b6000602082019050818103600083015261168581611246565b9050919050565b600060208201905081810360008301526116a5816112ac565b9050919050565b600060208201905081810360008301526116c581611312565b9050919050565b600060208201905081810360008301526116e581611378565b9050919050565b60006020820190508181036000830152611705816113de565b9050919050565b6000602082019050818103600083015261172581611444565b9050919050565b6000602082019050818103600083015261174581611484565b9050919050565b60006020820190508181036000830152611765816114ea565b9050919050565b6000602082019050818103600083015261178581611550565b9050919050565b600060208201905081810360008301526117a5816115b6565b9050919050565b60006020820190506117c160008301846115f6565b92915050565b60006020820190506117dc6000830184611605565b92915050565b600081519050919050565b600082825260208201905092915050565b600061180982611892565b915061181483611892565b9250827fffffffffffffffffffffffffffffffffffffffffffffffffffffffffffffffff038211156118495761184861190e565b5b828201905092915050565b600061185f82611872565b9050919050565b60008115159050919050565b600073ffffffffffffffffffffffffffffffffffffffff82169050919050565b6000819050919050565b600060ff82169050919050565b60005b838110156118c75780820151818401526020810190506118ac565b838111156118d6576000848401525b50505050565b600060028204905060018216806118f457607f821691505b602082108114156119085761190761193d565b5b50919050565b7f4e487b7100000000000000000000000000000000000000000000000000000000600052601160045260246000fd5b7f4e487b7100000000000000000000000000000000000000000000000000000000600052602260045260246000fd5b6000601f19601f8301169050919050565b61198681611854565b811461199157600080fd5b50565b61199d81611892565b81146119a857600080fd5b5056fea2646970667358221220f4393a3007905a6a48ee329e834eae6256688490c31245e2db57aab93020531264736f6c63430008000033",
  "linkReferences": {},
  "deployedLinkReferences": {}
}